{
  "_format": "hh-sol-artifact-1",
  "contractName": "Domain",
  "sourceName": "contracts/Domain.sol",
  "abi": [
    {
      "inputs": [
        {
          "internalType": "string",
          "name": "_domainTLD",
          "type": "string"
        }
      ],
      "stateMutability": "payable",
      "type": "constructor"
    },
    {
      "inputs": [
        {
          "internalType": "address",
          "name": "sender",
          "type": "address"
        },
        {
          "internalType": "uint256",
          "name": "tokenId",
          "type": "uint256"
        },
        {
          "internalType": "address",
          "name": "owner",
          "type": "address"
        }
      ],
      "name": "ERC721IncorrectOwner",
      "type": "error"
    },
    {
      "inputs": [
        {
          "internalType": "address",
          "name": "operator",
          "type": "address"
        },
        {
          "internalType": "uint256",
          "name": "tokenId",
          "type": "uint256"
        }
      ],
      "name": "ERC721InsufficientApproval",
      "type": "error"
    },
    {
      "inputs": [
        {
          "internalType": "address",
          "name": "approver",
          "type": "address"
        }
      ],
      "name": "ERC721InvalidApprover",
      "type": "error"
    },
    {
      "inputs": [
        {
          "internalType": "address",
          "name": "operator",
          "type": "address"
        }
      ],
      "name": "ERC721InvalidOperator",
      "type": "error"
    },
    {
      "inputs": [
        {
          "internalType": "address",
          "name": "owner",
          "type": "address"
        }
      ],
      "name": "ERC721InvalidOwner",
      "type": "error"
    },
    {
      "inputs": [
        {
          "internalType": "address",
          "name": "receiver",
          "type": "address"
        }
      ],
      "name": "ERC721InvalidReceiver",
      "type": "error"
    },
    {
      "inputs": [
        {
          "internalType": "address",
          "name": "sender",
          "type": "address"
        }
      ],
      "name": "ERC721InvalidSender",
      "type": "error"
    },
    {
      "inputs": [
        {
          "internalType": "uint256",
          "name": "tokenId",
          "type": "uint256"
        }
      ],
      "name": "ERC721NonexistentToken",
      "type": "error"
    },
    {
      "anonymous": false,
      "inputs": [
        {
          "indexed": true,
          "internalType": "address",
          "name": "owner",
          "type": "address"
        },
        {
          "indexed": true,
          "internalType": "address",
          "name": "approved",
          "type": "address"
        },
        {
          "indexed": true,
          "internalType": "uint256",
          "name": "tokenId",
          "type": "uint256"
        }
      ],
      "name": "Approval",
      "type": "event"
    },
    {
      "anonymous": false,
      "inputs": [
        {
          "indexed": true,
          "internalType": "address",
          "name": "owner",
          "type": "address"
        },
        {
          "indexed": true,
          "internalType": "address",
          "name": "operator",
          "type": "address"
        },
        {
          "indexed": false,
          "internalType": "bool",
          "name": "approved",
          "type": "bool"
        }
      ],
      "name": "ApprovalForAll",
      "type": "event"
    },
    {
      "anonymous": false,
      "inputs": [
        {
          "indexed": false,
          "internalType": "uint256",
          "name": "_fromTokenId",
          "type": "uint256"
        },
        {
          "indexed": false,
          "internalType": "uint256",
          "name": "_toTokenId",
          "type": "uint256"
        }
      ],
      "name": "BatchMetadataUpdate",
      "type": "event"
    },
    {
      "anonymous": false,
      "inputs": [
        {
          "indexed": false,
          "internalType": "uint256",
          "name": "_tokenId",
          "type": "uint256"
        }
      ],
      "name": "MetadataUpdate",
      "type": "event"
    },
    {
      "anonymous": false,
      "inputs": [
        {
          "indexed": true,
          "internalType": "address",
          "name": "from",
          "type": "address"
        },
        {
          "indexed": true,
          "internalType": "address",
          "name": "to",
          "type": "address"
        },
        {
          "indexed": true,
          "internalType": "uint256",
          "name": "tokenId",
          "type": "uint256"
        }
      ],
      "name": "Transfer",
      "type": "event"
    },
    {
      "inputs": [],
      "name": "Array",
      "outputs": [
        {
          "components": [
            {
              "internalType": "string",
              "name": "name",
              "type": "string"
            },
            {
              "internalType": "address",
              "name": "from",
              "type": "address"
            },
            {
              "internalType": "uint256",
              "name": "price",
              "type": "uint256"
            },
            {
              "internalType": "uint256",
              "name": "time",
              "type": "uint256"
            }
          ],
          "internalType": "struct Domain.details[]",
          "name": "",
          "type": "tuple[]"
        }
      ],
      "stateMutability": "view",
      "type": "function"
    },
    {
      "inputs": [],
      "name": "_tokenIds",
      "outputs": [
        {
          "internalType": "uint256",
          "name": "",
          "type": "uint256"
        }
      ],
      "stateMutability": "view",
      "type": "function"
    },
    {
      "inputs": [
        {
          "internalType": "address",
          "name": "to",
          "type": "address"
        },
        {
          "internalType": "uint256",
          "name": "tokenId",
          "type": "uint256"
        }
      ],
      "name": "approve",
      "outputs": [],
      "stateMutability": "nonpayable",
      "type": "function"
    },
    {
      "inputs": [
        {
          "internalType": "address",
          "name": "owner",
          "type": "address"
        }
      ],
      "name": "balanceOf",
      "outputs": [
        {
          "internalType": "uint256",
          "name": "",
          "type": "uint256"
        }
      ],
      "stateMutability": "view",
      "type": "function"
    },
    {
      "inputs": [
        {
          "internalType": "uint256",
          "name": "",
          "type": "uint256"
        }
      ],
      "name": "detail",
      "outputs": [
        {
          "internalType": "string",
          "name": "name",
          "type": "string"
        },
        {
          "internalType": "address",
          "name": "from",
          "type": "address"
        },
        {
          "internalType": "uint256",
          "name": "price",
          "type": "uint256"
        },
        {
          "internalType": "uint256",
          "name": "time",
          "type": "uint256"
        }
      ],
      "stateMutability": "view",
      "type": "function"
    },
    {
      "inputs": [
        {
          "internalType": "string",
          "name": "",
          "type": "string"
        }
      ],
      "name": "domains",
      "outputs": [
        {
          "internalType": "address",
          "name": "",
          "type": "address"
        }
      ],
      "stateMutability": "view",
      "type": "function"
    },
    {
      "inputs": [
        {
          "internalType": "string",
          "name": "domainName",
          "type": "string"
        }
      ],
      "name": "getAddressFun",
      "outputs": [
        {
          "internalType": "address",
          "name": "",
          "type": "address"
        }
      ],
      "stateMutability": "view",
      "type": "function"
    },
    {
      "inputs": [
        {
          "internalType": "uint256",
          "name": "tokenId",
          "type": "uint256"
        }
      ],
      "name": "getApproved",
      "outputs": [
        {
          "internalType": "address",
          "name": "",
          "type": "address"
        }
      ],
      "stateMutability": "view",
      "type": "function"
    },
    {
      "inputs": [],
      "name": "getMoneyFromContract",
      "outputs": [],
      "stateMutability": "nonpayable",
      "type": "function"
    },
    {
      "inputs": [
        {
          "internalType": "string",
          "name": "domainName",
          "type": "string"
        }
      ],
      "name": "getRecord",
      "outputs": [
        {
          "internalType": "string",
          "name": "",
          "type": "string"
        }
      ],
      "stateMutability": "view",
      "type": "function"
    },
    {
      "inputs": [
        {
          "internalType": "address",
          "name": "owner",
          "type": "address"
        },
        {
          "internalType": "address",
          "name": "operator",
          "type": "address"
        }
      ],
      "name": "isApprovedForAll",
      "outputs": [
        {
          "internalType": "bool",
          "name": "",
          "type": "bool"
        }
      ],
      "stateMutability": "view",
      "type": "function"
    },
    {
      "inputs": [],
      "name": "name",
      "outputs": [
        {
          "internalType": "string",
          "name": "",
          "type": "string"
        }
      ],
      "stateMutability": "view",
      "type": "function"
    },
    {
      "inputs": [
        {
          "internalType": "uint256",
          "name": "tokenId",
          "type": "uint256"
        }
      ],
      "name": "ownerOf",
      "outputs": [
        {
          "internalType": "address",
          "name": "",
          "type": "address"
        }
      ],
      "stateMutability": "view",
      "type": "function"
    },
    {
      "inputs": [
        {
          "internalType": "string",
          "name": "domainName",
          "type": "string"
        }
      ],
      "name": "price",
      "outputs": [
        {
          "internalType": "uint256",
          "name": "",
          "type": "uint256"
        }
      ],
      "stateMutability": "pure",
      "type": "function"
    },
    {
      "inputs": [
        {
          "internalType": "string",
          "name": "",
          "type": "string"
        }
      ],
      "name": "records",
      "outputs": [
        {
          "internalType": "string",
          "name": "",
          "type": "string"
        }
      ],
      "stateMutability": "view",
      "type": "function"
    },
    {
      "inputs": [
        {
          "internalType": "string",
          "name": "domainName",
          "type": "string"
        }
      ],
      "name": "register",
      "outputs": [],
      "stateMutability": "payable",
      "type": "function"
    },
    {
      "inputs": [
        {
          "internalType": "address",
          "name": "from",
          "type": "address"
        },
        {
          "internalType": "address",
          "name": "to",
          "type": "address"
        },
        {
          "internalType": "uint256",
          "name": "tokenId",
          "type": "uint256"
        }
      ],
      "name": "safeTransferFrom",
      "outputs": [],
      "stateMutability": "nonpayable",
      "type": "function"
    },
    {
      "inputs": [
        {
          "internalType": "address",
          "name": "from",
          "type": "address"
        },
        {
          "internalType": "address",
          "name": "to",
          "type": "address"
        },
        {
          "internalType": "uint256",
          "name": "tokenId",
          "type": "uint256"
        },
        {
          "internalType": "bytes",
          "name": "data",
          "type": "bytes"
        }
      ],
      "name": "safeTransferFrom",
      "outputs": [],
      "stateMutability": "nonpayable",
      "type": "function"
    },
    {
      "inputs": [
        {
          "internalType": "address",
          "name": "operator",
          "type": "address"
        },
        {
          "internalType": "bool",
          "name": "approved",
          "type": "bool"
        }
      ],
      "name": "setApprovalForAll",
      "outputs": [],
      "stateMutability": "nonpayable",
      "type": "function"
    },
    {
      "inputs": [
        {
          "internalType": "string",
          "name": "domainName",
          "type": "string"
        },
        {
          "internalType": "string",
          "name": "_record",
          "type": "string"
        }
      ],
      "name": "setRecord",
      "outputs": [],
      "stateMutability": "nonpayable",
      "type": "function"
    },
    {
      "inputs": [
        {
          "internalType": "bytes4",
          "name": "interfaceId",
          "type": "bytes4"
        }
      ],
      "name": "supportsInterface",
      "outputs": [
        {
          "internalType": "bool",
          "name": "",
          "type": "bool"
        }
      ],
      "stateMutability": "view",
      "type": "function"
    },
    {
      "inputs": [],
      "name": "symbol",
      "outputs": [
        {
          "internalType": "string",
          "name": "",
          "type": "string"
        }
      ],
      "stateMutability": "view",
      "type": "function"
    },
    {
      "inputs": [
        {
          "internalType": "uint256",
          "name": "tokenId",
          "type": "uint256"
        }
      ],
      "name": "tokenURI",
      "outputs": [
        {
          "internalType": "string",
          "name": "",
          "type": "string"
        }
      ],
      "stateMutability": "view",
      "type": "function"
    },
    {
      "inputs": [
        {
          "internalType": "address",
          "name": "from",
          "type": "address"
        },
        {
          "internalType": "address",
          "name": "to",
          "type": "address"
        },
        {
          "internalType": "uint256",
          "name": "tokenId",
          "type": "uint256"
        }
      ],
      "name": "transferFrom",
      "outputs": [],
      "stateMutability": "nonpayable",
      "type": "function"
    },
    {
      "inputs": [],
      "name": "viewMoney",
      "outputs": [
        {
          "internalType": "uint256",
          "name": "",
          "type": "uint256"
        }
      ],
      "stateMutability": "view",
      "type": "function"
    }
  ],
  "bytecode": "0x60806040526001600755604051806108a0016040528061086b815260200162004c4761086b9139600a908162000036919062000560565b506040518060400160405280600d81526020017f3c2f746578743e3c2f7376673e00000000000000000000000000000000000000815250600b90816200007d919062000560565b50604051620054b2380380620054b28339818101604052810190620000a39190620007ab565b6040518060400160405280601581526020017f666f6c6c6f774d45204e616d65205365727669636500000000000000000000008152506040518060400160405280600481526020017f662d4d4500000000000000000000000000000000000000000000000000000000815250816000908162000120919062000560565b50806001908162000132919062000560565b50505080600c908162000146919062000560565b506200018e6040518060400160405280601881526020017f2573206e616d652073657276696365206465706c6f796564000000000000000081525082620001d660201b60201c565b33600860006101000a81548173ffffffffffffffffffffffffffffffffffffffff021916908373ffffffffffffffffffffffffffffffffffffffff16021790555050620008b8565b620002788282604051602401620001ef9291906200084e565b6040516020818303038152906040527f4b5c4277000000000000000000000000000000000000000000000000000000007bffffffffffffffffffffffffffffffffffffffffffffffffffffffff19166020820180517bffffffffffffffffffffffffffffffffffffffffffffffffffffffff83818316178352505050506200027c60201b60201c565b5050565b620002a2816200029d620002a560201b620017ea17620002c660201b60201c565b60201c565b50565b60006a636f6e736f6c652e6c6f679050600080835160208501845afa505050565b620002da60201b62002c6317819050919050565b620002e462000889565b565b600081519050919050565b7f4e487b7100000000000000000000000000000000000000000000000000000000600052604160045260246000fd5b7f4e487b7100000000000000000000000000000000000000000000000000000000600052602260045260246000fd5b600060028204905060018216806200036857607f821691505b6020821081036200037e576200037d62000320565b5b50919050565b60008190508160005260206000209050919050565b60006020601f8301049050919050565b600082821b905092915050565b600060088302620003e87fffffffffffffffffffffffffffffffffffffffffffffffffffffffffffffffff82620003a9565b620003f48683620003a9565b95508019841693508086168417925050509392505050565b6000819050919050565b6000819050919050565b6000620004416200043b62000435846200040c565b62000416565b6200040c565b9050919050565b6000819050919050565b6200045d8362000420565b620004756200046c8262000448565b848454620003b6565b825550505050565b600090565b6200048c6200047d565b6200049981848462000452565b505050565b5b81811015620004c157620004b560008262000482565b6001810190506200049f565b5050565b601f8211156200051057620004da8162000384565b620004e58462000399565b81016020851015620004f5578190505b6200050d620005048562000399565b8301826200049e565b50505b505050565b600082821c905092915050565b6000620005356000198460080262000515565b1980831691505092915050565b600062000550838362000522565b9150826002028217905092915050565b6200056b82620002e6565b67ffffffffffffffff811115620005875762000586620002f1565b5b6200059382546200034f565b620005a0828285620004c5565b600060209050601f831160018114620005d85760008415620005c3578287015190505b620005cf858262000542565b8655506200063f565b601f198416620005e88662000384565b60005b828110156200061257848901518255600182019150602085019450602081019050620005eb565b868310156200063257848901516200062e601f89168262000522565b8355505b6001600288020188555050505b505050505050565b6000604051905090565b600080fd5b600080fd5b600080fd5b600080fd5b6000601f19601f8301169050919050565b620006818262000665565b810181811067ffffffffffffffff82111715620006a357620006a2620002f1565b5b80604052505050565b6000620006b862000647565b9050620006c6828262000676565b919050565b600067ffffffffffffffff821115620006e957620006e8620002f1565b5b620006f48262000665565b9050602081019050919050565b60005b838110156200072157808201518184015260208101905062000704565b60008484015250505050565b6000620007446200073e84620006cb565b620006ac565b90508281526020810184848401111562000763576200076262000660565b5b6200077084828562000701565b509392505050565b600082601f83011262000790576200078f6200065b565b5b8151620007a28482602086016200072d565b91505092915050565b600060208284031215620007c457620007c362000651565b5b600082015167ffffffffffffffff811115620007e557620007e462000656565b5b620007f38482850162000778565b91505092915050565b600082825260208201905092915050565b60006200081a82620002e6565b620008268185620007fc565b93506200083881856020860162000701565b620008438162000665565b840191505092915050565b600060408201905081810360008301526200086a81856200080d565b905081810360208301526200088081846200080d565b90509392505050565b7f4e487b7100000000000000000000000000000000000000000000000000000000600052605160045260246000fd5b61437f80620008c86000396000f3fe6080604052600436106101665760003560e01c806395d89b41116100d1578063c87b56dd1161008a578063e0690f3011610064578063e0690f3014610577578063e985e9c5146105b4578063f2c298be146105f1578063fe2c61981461060d57610166565b8063c87b56dd146104cf578063c9f32a991461050c578063db487f361461053757610166565b806395d89b41146103d35780639607b362146103fe578063a22cb46514610429578063aa46a40014610452578063b88d4fde1461047d578063c1880a98146104a657610166565b80632644923511610123578063264492351461029f57806342842e0e146102dc578063541e771d146103055780636352211e1461034257806368648b5f1461037f57806370a082311461039657610166565b806301ffc9a71461016b57806306fdde03146101a8578063081812fc146101d3578063095ea7b31461021057806311dd88451461023957806323b872dd14610276575b600080fd5b34801561017757600080fd5b50610192600480360381019061018d9190612cd9565b61064a565b60405161019f9190612d21565b60405180910390f35b3480156101b457600080fd5b506101bd6106ab565b6040516101ca9190612dcc565b60405180910390f35b3480156101df57600080fd5b506101fa60048036038101906101f59190612e24565b61073d565b6040516102079190612e92565b60405180910390f35b34801561021c57600080fd5b5061023760048036038101906102329190612ed9565b610759565b005b34801561024557600080fd5b50610260600480360381019061025b9190612f7e565b61076f565b60405161026d9190612dcc565b60405180910390f35b34801561028257600080fd5b5061029d60048036038101906102989190612fcb565b610822565b005b3480156102ab57600080fd5b506102c660048036038101906102c1919061314e565b610924565b6040516102d39190612e92565b60405180910390f35b3480156102e857600080fd5b5061030360048036038101906102fe9190612fcb565b61096d565b005b34801561031157600080fd5b5061032c6004803603810190610327919061314e565b61098d565b6040516103399190612dcc565b60405180910390f35b34801561034e57600080fd5b5061036960048036038101906103649190612e24565b610a43565b6040516103769190612e92565b60405180910390f35b34801561038b57600080fd5b50610394610a55565b005b3480156103a257600080fd5b506103bd60048036038101906103b89190613197565b610b1a565b6040516103ca91906131d3565b60405180910390f35b3480156103df57600080fd5b506103e8610bd4565b6040516103f59190612dcc565b60405180910390f35b34801561040a57600080fd5b50610413610c66565b604051610420919061337b565b60405180910390f35b34801561043557600080fd5b50610450600480360381019061044b91906133c9565b610dc1565b005b34801561045e57600080fd5b50610467610dd7565b60405161047491906131d3565b60405180910390f35b34801561048957600080fd5b506104a4600480360381019061049f91906134aa565b610ddd565b005b3480156104b257600080fd5b506104cd60048036038101906104c8919061352d565b610dfa565b005b3480156104db57600080fd5b506104f660048036038101906104f19190612e24565b610ea8565b6040516105039190612dcc565b60405180910390f35b34801561051857600080fd5b50610521610fbb565b60405161052e91906131d3565b60405180910390f35b34801561054357600080fd5b5061055e60048036038101906105599190612e24565b610fc3565b60405161056e94939291906135ae565b60405180910390f35b34801561058357600080fd5b5061059e60048036038101906105999190612f7e565b6110ab565b6040516105ab9190612e92565b60405180910390f35b3480156105c057600080fd5b506105db60048036038101906105d691906135fa565b6110f6565b6040516105e89190612d21565b60405180910390f35b61060b60048036038101906106069190612f7e565b61118a565b005b34801561061957600080fd5b50610634600480360381019061062f9190612f7e565b6116c4565b60405161064191906131d3565b60405180910390f35b6000634906490660e01b7bffffffffffffffffffffffffffffffffffffffffffffffffffffffff1916827bffffffffffffffffffffffffffffffffffffffffffffffffffffffff191614806106a457506106a38261180b565b5b9050919050565b6060600080546106ba90613669565b80601f01602080910402602001604051908101604052809291908181526020018280546106e690613669565b80156107335780601f1061070857610100808354040283529160200191610733565b820191906000526020600020905b81548152906001019060200180831161071657829003601f168201915b5050505050905090565b6000610748826118ed565b5061075282611975565b9050919050565b61076b82826107666119b2565b6119ba565b5050565b6060600e83836040516107839291906136ca565b9081526020016040518091039020805461079c90613669565b80601f01602080910402602001604051908101604052809291908181526020018280546107c890613669565b80156108155780601f106107ea57610100808354040283529160200191610815565b820191906000526020600020905b8154815290600101906020018083116107f857829003601f168201915b5050505050905092915050565b600073ffffffffffffffffffffffffffffffffffffffff168273ffffffffffffffffffffffffffffffffffffffff16036108945760006040517f64a0ae9200000000000000000000000000000000000000000000000000000000815260040161088b9190612e92565b60405180910390fd5b60006108a883836108a36119b2565b6119cc565b90508373ffffffffffffffffffffffffffffffffffffffff168173ffffffffffffffffffffffffffffffffffffffff161461091e578382826040517f64283d7b000000000000000000000000000000000000000000000000000000008152600401610915939291906136e3565b60405180910390fd5b50505050565b600d818051602081018201805184825260208301602085012081835280955050505050506000915054906101000a900473ffffffffffffffffffffffffffffffffffffffff1681565b61098883838360405180602001604052806000815250610ddd565b505050565b600e8180516020810182018051848252602083016020850120818352809550505050505060009150905080546109c290613669565b80601f01602080910402602001604051908101604052809291908181526020018280546109ee90613669565b8015610a3b5780601f10610a1057610100808354040283529160200191610a3b565b820191906000526020600020905b815481529060010190602001808311610a1e57829003601f168201915b505050505081565b6000610a4e826118ed565b9050919050565b600860009054906101000a900473ffffffffffffffffffffffffffffffffffffffff1673ffffffffffffffffffffffffffffffffffffffff163373ffffffffffffffffffffffffffffffffffffffff1614610aaf57600080fd5b600860009054906101000a900473ffffffffffffffffffffffffffffffffffffffff1673ffffffffffffffffffffffffffffffffffffffff166108fc479081150290604051600060405180830381858888f19350505050158015610b17573d6000803e3d6000fd5b50565b60008073ffffffffffffffffffffffffffffffffffffffff168273ffffffffffffffffffffffffffffffffffffffff1603610b8d5760006040517f89c62b64000000000000000000000000000000000000000000000000000000008152600401610b849190612e92565b60405180910390fd5b600360008373ffffffffffffffffffffffffffffffffffffffff1673ffffffffffffffffffffffffffffffffffffffff168152602001908152602001600020549050919050565b606060018054610be390613669565b80601f0160208091040260200160405190810160405280929190818152602001828054610c0f90613669565b8015610c5c5780601f10610c3157610100808354040283529160200191610c5c565b820191906000526020600020905b815481529060010190602001808311610c3f57829003601f168201915b5050505050905090565b60606009805480602002602001604051908101604052809291908181526020016000905b82821015610db85783829060005260206000209060040201604051806080016040529081600082018054610cbd90613669565b80601f0160208091040260200160405190810160405280929190818152602001828054610ce990613669565b8015610d365780601f10610d0b57610100808354040283529160200191610d36565b820191906000526020600020905b815481529060010190602001808311610d1957829003601f168201915b505050505081526020016001820160009054906101000a900473ffffffffffffffffffffffffffffffffffffffff1673ffffffffffffffffffffffffffffffffffffffff1673ffffffffffffffffffffffffffffffffffffffff1681526020016002820154815260200160038201548152505081526020019060010190610c8a565b50505050905090565b610dd3610dcc6119b2565b8383611be6565b5050565b60075481565b610de8848484610822565b610df484848484611d55565b50505050565b3373ffffffffffffffffffffffffffffffffffffffff16600d8585604051610e239291906136ca565b908152602001604051809103902060009054906101000a900473ffffffffffffffffffffffffffffffffffffffff1673ffffffffffffffffffffffffffffffffffffffff1614610e7257600080fd5b8181600e8686604051610e869291906136ca565b90815260200160405180910390209182610ea19291906138d1565b5050505050565b6060610eb3826118ed565b506000600660008481526020019081526020016000208054610ed490613669565b80601f0160208091040260200160405190810160405280929190818152602001828054610f0090613669565b8015610f4d5780601f10610f2257610100808354040283529160200191610f4d565b820191906000526020600020905b815481529060010190602001808311610f3057829003601f168201915b505050505090506000610f5e611f0c565b90506000815103610f73578192505050610fb6565b600082511115610fa8578082604051602001610f909291906139d2565b60405160208183030381529060405292505050610fb6565b610fb184611f23565b925050505b919050565b600047905090565b60098181548110610fd357600080fd5b9060005260206000209060040201600091509050806000018054610ff690613669565b80601f016020809104026020016040519081016040528092919081815260200182805461102290613669565b801561106f5780601f106110445761010080835404028352916020019161106f565b820191906000526020600020905b81548152906001019060200180831161105257829003601f168201915b5050505050908060010160009054906101000a900473ffffffffffffffffffffffffffffffffffffffff16908060020154908060030154905084565b6000600d83836040516110bf9291906136ca565b908152602001604051809103902060009054906101000a900473ffffffffffffffffffffffffffffffffffffffff16905092915050565b6000600560008473ffffffffffffffffffffffffffffffffffffffff1673ffffffffffffffffffffffffffffffffffffffff16815260200190815260200160002060008373ffffffffffffffffffffffffffffffffffffffff1673ffffffffffffffffffffffffffffffffffffffff16815260200190815260200160002060009054906101000a900460ff16905092915050565b600073ffffffffffffffffffffffffffffffffffffffff16600d83836040516111b49291906136ca565b908152602001604051809103902060009054906101000a900473ffffffffffffffffffffffffffffffffffffffff1673ffffffffffffffffffffffffffffffffffffffff161461120357600080fd5b600061120f83836116c4565b905080341015611254576040517f08c379a000000000000000000000000000000000000000000000000000000000815260040161124b90613a42565b60405180910390fd5b60008383600c60405160200161126c93929190613b31565b60405160208183030381529060405290506000600a82600b60405160200161129693929190613b62565b6040516020818303038152906040529050600060075490506112d06040518060600160405280602d815260200161431d602d913982611f8c565b600086868080601f016020809104026020016040519081016040528093929190818152602001838380828437600081840152601f19601f820116905080830192505050505050509050600081519050600061132a82612028565b90506113f76040518060400160405280602081526020017f646f6d61696e206e616d652077617320726567697374657265642077697468208152508786600c805461137490613669565b80601f01602080910402602001604051908101604052809291908181526020018280546113a090613669565b80156113ed5780601f106113c2576101008083540402835291602001916113ed565b820191906000526020600020905b8154815290600101906020018083116113d057829003601f168201915b50505050506120f6565b600061142d8761140688612198565b8460405160200161141993929190613d0f565b604051602081830303815290604052612198565b90506000816040516020016114429190613db8565b604051602081830303815290604052905061147460405180606001604052806039815260200161426b603991396122fb565b6114b36040518060400160405280600e81526020017f46696e616c20746f6b656e55524900000000000000000000000000000000000081525082612394565b6114d46040518060600160405280603981526020016142a4603991396122fb565b6114de3387612430565b6114e8868261244e565b33600d8c8c6040516114fb9291906136ca565b908152602001604051809103902060006101000a81548173ffffffffffffffffffffffffffffffffffffffff021916908373ffffffffffffffffffffffffffffffffffffffff1602179055506115866040518060400160405280601b81526020017f25732068617320726567697374656420666f7220646f6d61696e210000000000815250336124aa565b600960405180608001604052808d8d8080601f016020809104026020016040519081016040528093929190818152602001838380828437600081840152601f19601f8201169050808301925050505050505081526020013373ffffffffffffffffffffffffffffffffffffffff1681526020018b815260200142815250908060018154018082558091505060019003906000526020600020906004020160009091909190915060008201518160000190816116419190613dda565b5060208201518160010160006101000a81548173ffffffffffffffffffffffffffffffffffffffff021916908373ffffffffffffffffffffffffffffffffffffffff16021790555060408201518160020155606082015181600301555050600760008154809291906116b290613edb565b91905055505050505050505050505050565b60008083838080601f016020809104026020016040519081016040528093929190818152602001838380828437600081840152601f19601f8201169050808301925050505050505090506000815190506117986040518060400160405280600a81526020017f6c656e677468206f66200000000000000000000000000000000000000000000081525086868080601f016020809104026020016040519081016040528093929190818152602001838380828437600081840152601f19601f8201169050808301925050505050505083612546565b600081116117a557600080fd5b600381036117be5766b1a2bc2ec50000925050506117e4565b600481036117d757666a94d74f430000925050506117e4565b662386f26fc10000925050505b92915050565b60006a636f6e736f6c652e6c6f679050600080835160208501845afa505050565b60007f80ac58cd000000000000000000000000000000000000000000000000000000007bffffffffffffffffffffffffffffffffffffffffffffffffffffffff1916827bffffffffffffffffffffffffffffffffffffffffffffffffffffffff191614806118d657507f5b5e139f000000000000000000000000000000000000000000000000000000007bffffffffffffffffffffffffffffffffffffffffffffffffffffffff1916827bffffffffffffffffffffffffffffffffffffffffffffffffffffffff1916145b806118e657506118e5826125e5565b5b9050919050565b6000806118f98361264f565b9050600073ffffffffffffffffffffffffffffffffffffffff168173ffffffffffffffffffffffffffffffffffffffff160361196c57826040517f7e27328900000000000000000000000000000000000000000000000000000000815260040161196391906131d3565b60405180910390fd5b80915050919050565b60006004600083815260200190815260200160002060009054906101000a900473ffffffffffffffffffffffffffffffffffffffff169050919050565b600033905090565b6119c7838383600161268c565b505050565b6000806119d88461264f565b9050600073ffffffffffffffffffffffffffffffffffffffff168373ffffffffffffffffffffffffffffffffffffffff1614611a1a57611a19818486612851565b5b600073ffffffffffffffffffffffffffffffffffffffff168173ffffffffffffffffffffffffffffffffffffffff1614611aab57611a5c60008560008061268c565b6001600360008373ffffffffffffffffffffffffffffffffffffffff1673ffffffffffffffffffffffffffffffffffffffff168152602001908152602001600020600082825403925050819055505b600073ffffffffffffffffffffffffffffffffffffffff168573ffffffffffffffffffffffffffffffffffffffff1614611b2e576001600360008773ffffffffffffffffffffffffffffffffffffffff1673ffffffffffffffffffffffffffffffffffffffff168152602001908152602001600020600082825401925050819055505b846002600086815260200190815260200160002060006101000a81548173ffffffffffffffffffffffffffffffffffffffff021916908373ffffffffffffffffffffffffffffffffffffffff160217905550838573ffffffffffffffffffffffffffffffffffffffff168273ffffffffffffffffffffffffffffffffffffffff167fddf252ad1be2c89b69c2b068fc378daa952ba7f163c4a11628f55a4df523b3ef60405160405180910390a4809150509392505050565b600073ffffffffffffffffffffffffffffffffffffffff168273ffffffffffffffffffffffffffffffffffffffff1603611c5757816040517f5b08ba18000000000000000000000000000000000000000000000000000000008152600401611c4e9190612e92565b60405180910390fd5b80600560008573ffffffffffffffffffffffffffffffffffffffff1673ffffffffffffffffffffffffffffffffffffffff16815260200190815260200160002060008473ffffffffffffffffffffffffffffffffffffffff1673ffffffffffffffffffffffffffffffffffffffff16815260200190815260200160002060006101000a81548160ff0219169083151502179055508173ffffffffffffffffffffffffffffffffffffffff168373ffffffffffffffffffffffffffffffffffffffff167f17307eab39ab6107e8899845ad3d59bd9653f200f220920489ca2b5937696c3183604051611d489190612d21565b60405180910390a3505050565b60008373ffffffffffffffffffffffffffffffffffffffff163b1115611f06578273ffffffffffffffffffffffffffffffffffffffff1663150b7a02611d996119b2565b8685856040518563ffffffff1660e01b8152600401611dbb9493929190613f78565b6020604051808303816000875af1925050508015611df757506040513d601f19601f82011682018060405250810190611df49190613fd9565b60015b611e7b573d8060008114611e27576040519150601f19603f3d011682016040523d82523d6000602084013e611e2c565b606091505b506000815103611e7357836040517f64a0ae92000000000000000000000000000000000000000000000000000000008152600401611e6a9190612e92565b60405180910390fd5b805181602001fd5b63150b7a0260e01b7bffffffffffffffffffffffffffffffffffffffffffffffffffffffff1916817bffffffffffffffffffffffffffffffffffffffffffffffffffffffff191614611f0457836040517f64a0ae92000000000000000000000000000000000000000000000000000000008152600401611efb9190612e92565b60405180910390fd5b505b50505050565b606060405180602001604052806000815250905090565b6060611f2e826118ed565b506000611f39611f0c565b90506000815111611f595760405180602001604052806000815250611f84565b80611f6384612028565b604051602001611f749291906139d2565b6040516020818303038152906040525b915050919050565b6120248282604051602401611fa2929190614006565b6040516020818303038152906040527fb60e72cc000000000000000000000000000000000000000000000000000000007bffffffffffffffffffffffffffffffffffffffffffffffffffffffff19166020820180517bffffffffffffffffffffffffffffffffffffffffffffffffffffffff8381831617835250505050612915565b5050565b6060600060016120378461292f565b01905060008167ffffffffffffffff81111561205657612055613023565b5b6040519080825280601f01601f1916602001820160405280156120885781602001600182028036833780820191505090505b509050600082602001820190505b6001156120eb578080600190039150507f3031323334353637383961626364656600000000000000000000000000000000600a86061a8153600a85816120df576120de614036565b5b04945060008503612096575b819350505050919050565b612192848484846040516024016121109493929190614065565b6040516020818303038152906040527f5d1a971a000000000000000000000000000000000000000000000000000000007bffffffffffffffffffffffffffffffffffffffffffffffffffffffff19166020820180517bffffffffffffffffffffffffffffffffffffffffffffffffffffffff8381831617835250505050612915565b50505050565b606060008251036121ba576040518060200160405280600081525090506122f6565b60006040518060600160405280604081526020016142dd60409139905060006003600285516121e991906140bf565b6121f391906140f3565b60046121ff9190614124565b67ffffffffffffffff81111561221857612217613023565b5b6040519080825280601f01601f19166020018201604052801561224a5781602001600182028036833780820191505090505b509050600182016020820185865187015b808210156122b6576003820191508151603f8160121c168501518453600184019350603f81600c1c168501518453600184019350603f8160061c168501518453600184019350603f811685015184536001840193505061225b565b50506003865106600181146122d257600281146122e5576122ed565b603d6001830353603d60028303536122ed565b603d60018303535b50505080925050505b919050565b6123918160405160240161230f9190612dcc565b6040516020818303038152906040527f41304fac000000000000000000000000000000000000000000000000000000007bffffffffffffffffffffffffffffffffffffffffffffffffffffffff19166020820180517bffffffffffffffffffffffffffffffffffffffffffffffffffffffff8381831617835250505050612915565b50565b61242c82826040516024016123aa929190614166565b6040516020818303038152906040527f4b5c4277000000000000000000000000000000000000000000000000000000007bffffffffffffffffffffffffffffffffffffffffffffffffffffffff19166020820180517bffffffffffffffffffffffffffffffffffffffffffffffffffffffff8381831617835250505050612915565b5050565b61244a828260405180602001604052806000815250612a82565b5050565b8060066000848152602001908152602001600020908161246e9190613dda565b507ff8e1a15aba9398e019f0b49df1a4fde98ee17ae345cb5f6b5e2c27f5033e8ce78260405161249e91906131d3565b60405180910390a15050565b61254282826040516024016124c092919061419d565b6040516020818303038152906040527f319af333000000000000000000000000000000000000000000000000000000007bffffffffffffffffffffffffffffffffffffffffffffffffffffffff19166020820180517bffffffffffffffffffffffffffffffffffffffffffffffffffffffff8381831617835250505050612915565b5050565b6125e083838360405160240161255e939291906141cd565b6040516020818303038152906040527f5821efa1000000000000000000000000000000000000000000000000000000007bffffffffffffffffffffffffffffffffffffffffffffffffffffffff19166020820180517bffffffffffffffffffffffffffffffffffffffffffffffffffffffff8381831617835250505050612915565b505050565b60007f01ffc9a7000000000000000000000000000000000000000000000000000000007bffffffffffffffffffffffffffffffffffffffffffffffffffffffff1916827bffffffffffffffffffffffffffffffffffffffffffffffffffffffff1916149050919050565b60006002600083815260200190815260200160002060009054906101000a900473ffffffffffffffffffffffffffffffffffffffff169050919050565b80806126c55750600073ffffffffffffffffffffffffffffffffffffffff168273ffffffffffffffffffffffffffffffffffffffff1614155b156127f95760006126d5846118ed565b9050600073ffffffffffffffffffffffffffffffffffffffff168373ffffffffffffffffffffffffffffffffffffffff161415801561274057508273ffffffffffffffffffffffffffffffffffffffff168173ffffffffffffffffffffffffffffffffffffffff1614155b8015612753575061275181846110f6565b155b1561279557826040517fa9fbf51f00000000000000000000000000000000000000000000000000000000815260040161278c9190612e92565b60405180910390fd5b81156127f757838573ffffffffffffffffffffffffffffffffffffffff168273ffffffffffffffffffffffffffffffffffffffff167f8c5be1e5ebec7d5bd14f71427d1e84f3dd0314c0f7b2291e5b200ac8c7c3b92560405160405180910390a45b505b836004600085815260200190815260200160002060006101000a81548173ffffffffffffffffffffffffffffffffffffffff021916908373ffffffffffffffffffffffffffffffffffffffff16021790555050505050565b61285c838383612a9e565b61291057600073ffffffffffffffffffffffffffffffffffffffff168373ffffffffffffffffffffffffffffffffffffffff16036128d157806040517f7e2732890000000000000000000000000000000000000000000000000000000081526004016128c891906131d3565b60405180910390fd5b81816040517f177e802f000000000000000000000000000000000000000000000000000000008152600401612907929190614212565b60405180910390fd5b505050565b61292c816129246117ea612b5f565b63ffffffff16565b50565b600080600090507a184f03e93ff9f4daa797ed6e38ed64bf6a1f010000000000000000831061298d577a184f03e93ff9f4daa797ed6e38ed64bf6a1f010000000000000000838161298357612982614036565b5b0492506040810190505b6d04ee2d6d415b85acef810000000083106129ca576d04ee2d6d415b85acef810000000083816129c0576129bf614036565b5b0492506020810190505b662386f26fc1000083106129f957662386f26fc1000083816129ef576129ee614036565b5b0492506010810190505b6305f5e1008310612a22576305f5e1008381612a1857612a17614036565b5b0492506008810190505b6127108310612a47576127108381612a3d57612a3c614036565b5b0492506004810190505b60648310612a6a5760648381612a6057612a5f614036565b5b0492506002810190505b600a8310612a79576001810190505b80915050919050565b612a8c8383612b6a565b612a996000848484611d55565b505050565b60008073ffffffffffffffffffffffffffffffffffffffff168373ffffffffffffffffffffffffffffffffffffffff1614158015612b5657508273ffffffffffffffffffffffffffffffffffffffff168473ffffffffffffffffffffffffffffffffffffffff161480612b175750612b1684846110f6565b5b80612b5557508273ffffffffffffffffffffffffffffffffffffffff16612b3d83611975565b73ffffffffffffffffffffffffffffffffffffffff16145b5b90509392505050565b612c63819050919050565b600073ffffffffffffffffffffffffffffffffffffffff168273ffffffffffffffffffffffffffffffffffffffff1603612bdc5760006040517f64a0ae92000000000000000000000000000000000000000000000000000000008152600401612bd39190612e92565b60405180910390fd5b6000612bea838360006119cc565b9050600073ffffffffffffffffffffffffffffffffffffffff168173ffffffffffffffffffffffffffffffffffffffff1614612c5e5760006040517f73c6ac6e000000000000000000000000000000000000000000000000000000008152600401612c559190612e92565b60405180910390fd5b505050565b612c6b61423b565b565b6000604051905090565b600080fd5b600080fd5b60007fffffffff0000000000000000000000000000000000000000000000000000000082169050919050565b612cb681612c81565b8114612cc157600080fd5b50565b600081359050612cd381612cad565b92915050565b600060208284031215612cef57612cee612c77565b5b6000612cfd84828501612cc4565b91505092915050565b60008115159050919050565b612d1b81612d06565b82525050565b6000602082019050612d366000830184612d12565b92915050565b600081519050919050565b600082825260208201905092915050565b60005b83811015612d76578082015181840152602081019050612d5b565b60008484015250505050565b6000601f19601f8301169050919050565b6000612d9e82612d3c565b612da88185612d47565b9350612db8818560208601612d58565b612dc181612d82565b840191505092915050565b60006020820190508181036000830152612de68184612d93565b905092915050565b6000819050919050565b612e0181612dee565b8114612e0c57600080fd5b50565b600081359050612e1e81612df8565b92915050565b600060208284031215612e3a57612e39612c77565b5b6000612e4884828501612e0f565b91505092915050565b600073ffffffffffffffffffffffffffffffffffffffff82169050919050565b6000612e7c82612e51565b9050919050565b612e8c81612e71565b82525050565b6000602082019050612ea76000830184612e83565b92915050565b612eb681612e71565b8114612ec157600080fd5b50565b600081359050612ed381612ead565b92915050565b60008060408385031215612ef057612eef612c77565b5b6000612efe85828601612ec4565b9250506020612f0f85828601612e0f565b9150509250929050565b600080fd5b600080fd5b600080fd5b60008083601f840112612f3e57612f3d612f19565b5b8235905067ffffffffffffffff811115612f5b57612f5a612f1e565b5b602083019150836001820283011115612f7757612f76612f23565b5b9250929050565b60008060208385031215612f9557612f94612c77565b5b600083013567ffffffffffffffff811115612fb357612fb2612c7c565b5b612fbf85828601612f28565b92509250509250929050565b600080600060608486031215612fe457612fe3612c77565b5b6000612ff286828701612ec4565b935050602061300386828701612ec4565b925050604061301486828701612e0f565b9150509250925092565b600080fd5b7f4e487b7100000000000000000000000000000000000000000000000000000000600052604160045260246000fd5b61305b82612d82565b810181811067ffffffffffffffff8211171561307a57613079613023565b5b80604052505050565b600061308d612c6d565b90506130998282613052565b919050565b600067ffffffffffffffff8211156130b9576130b8613023565b5b6130c282612d82565b9050602081019050919050565b82818337600083830152505050565b60006130f16130ec8461309e565b613083565b90508281526020810184848401111561310d5761310c61301e565b5b6131188482856130cf565b509392505050565b600082601f83011261313557613134612f19565b5b81356131458482602086016130de565b91505092915050565b60006020828403121561316457613163612c77565b5b600082013567ffffffffffffffff81111561318257613181612c7c565b5b61318e84828501613120565b91505092915050565b6000602082840312156131ad576131ac612c77565b5b60006131bb84828501612ec4565b91505092915050565b6131cd81612dee565b82525050565b60006020820190506131e860008301846131c4565b92915050565b600081519050919050565b600082825260208201905092915050565b6000819050602082019050919050565b600082825260208201905092915050565b600061323682612d3c565b613240818561321a565b9350613250818560208601612d58565b61325981612d82565b840191505092915050565b61326d81612e71565b82525050565b61327c81612dee565b82525050565b6000608083016000830151848203600086015261329f828261322b565b91505060208301516132b46020860182613264565b5060408301516132c76040860182613273565b5060608301516132da6060860182613273565b508091505092915050565b60006132f18383613282565b905092915050565b6000602082019050919050565b6000613311826131ee565b61331b81856131f9565b93508360208202850161332d8561320a565b8060005b85811015613369578484038952815161334a85826132e5565b9450613355836132f9565b925060208a01995050600181019050613331565b50829750879550505050505092915050565b600060208201905081810360008301526133958184613306565b905092915050565b6133a681612d06565b81146133b157600080fd5b50565b6000813590506133c38161339d565b92915050565b600080604083850312156133e0576133df612c77565b5b60006133ee85828601612ec4565b92505060206133ff858286016133b4565b9150509250929050565b600067ffffffffffffffff82111561342457613423613023565b5b61342d82612d82565b9050602081019050919050565b600061344d61344884613409565b613083565b9050828152602081018484840111156134695761346861301e565b5b6134748482856130cf565b509392505050565b600082601f83011261349157613490612f19565b5b81356134a184826020860161343a565b91505092915050565b600080600080608085870312156134c4576134c3612c77565b5b60006134d287828801612ec4565b94505060206134e387828801612ec4565b93505060406134f487828801612e0f565b925050606085013567ffffffffffffffff81111561351557613514612c7c565b5b6135218782880161347c565b91505092959194509250565b6000806000806040858703121561354757613546612c77565b5b600085013567ffffffffffffffff81111561356557613564612c7c565b5b61357187828801612f28565b9450945050602085013567ffffffffffffffff81111561359457613593612c7c565b5b6135a087828801612f28565b925092505092959194509250565b600060808201905081810360008301526135c88187612d93565b90506135d76020830186612e83565b6135e460408301856131c4565b6135f160608301846131c4565b95945050505050565b6000806040838503121561361157613610612c77565b5b600061361f85828601612ec4565b925050602061363085828601612ec4565b9150509250929050565b7f4e487b7100000000000000000000000000000000000000000000000000000000600052602260045260246000fd5b6000600282049050600182168061368157607f821691505b6020821081036136945761369361363a565b5b50919050565b600081905092915050565b60006136b1838561369a565b93506136be8385846130cf565b82840190509392505050565b60006136d78284866136a5565b91508190509392505050565b60006060820190506136f86000830186612e83565b61370560208301856131c4565b6137126040830184612e83565b949350505050565b600082905092915050565b60008190508160005260206000209050919050565b60006020601f8301049050919050565b600082821b905092915050565b6000600883026137877fffffffffffffffffffffffffffffffffffffffffffffffffffffffffffffffff8261374a565b613791868361374a565b95508019841693508086168417925050509392505050565b6000819050919050565b60006137ce6137c96137c484612dee565b6137a9565b612dee565b9050919050565b6000819050919050565b6137e8836137b3565b6137fc6137f4826137d5565b848454613757565b825550505050565b600090565b613811613804565b61381c8184846137df565b505050565b5b8181101561384057613835600082613809565b600181019050613822565b5050565b601f8211156138855761385681613725565b61385f8461373a565b8101602085101561386e578190505b61388261387a8561373a565b830182613821565b50505b505050565b600082821c905092915050565b60006138a86000198460080261388a565b1980831691505092915050565b60006138c18383613897565b9150826002028217905092915050565b6138db838361371a565b67ffffffffffffffff8111156138f4576138f3613023565b5b6138fe8254613669565b613909828285613844565b6000601f8311600181146139385760008415613926578287013590505b61393085826138b5565b865550613998565b601f19841661394686613725565b60005b8281101561396e57848901358255600182019150602085019450602081019050613949565b8683101561398b5784890135613987601f891682613897565b8355505b6001600288020188555050505b50505050505050565b60006139ac82612d3c565b6139b6818561369a565b93506139c6818560208601612d58565b80840191505092915050565b60006139de82856139a1565b91506139ea82846139a1565b91508190509392505050565b7f796f7520646f6e7420686176652072657175697265206d617469632100000000600082015250565b6000613a2c601c83612d47565b9150613a37826139f6565b602082019050919050565b60006020820190508181036000830152613a5b81613a1f565b9050919050565b7f2e00000000000000000000000000000000000000000000000000000000000000600082015250565b6000613a9860018361369a565b9150613aa382613a62565b600182019050919050565b60008154613abb81613669565b613ac5818661369a565b94506001821660008114613ae05760018114613af557613b28565b60ff1983168652811515820286019350613b28565b613afe85613725565b60005b83811015613b2057815481890152600182019150602081019050613b01565b838801955050505b50505092915050565b6000613b3e8285876136a5565b9150613b4982613a8b565b9150613b558284613aae565b9150819050949350505050565b6000613b6e8286613aae565b9150613b7a82856139a1565b9150613b868284613aae565b9150819050949350505050565b7f7b226e616d65223a202200000000000000000000000000000000000000000000600082015250565b6000613bc9600a8361369a565b9150613bd482613b93565b600a82019050919050565b7f222c20226465736372697074696f6e223a20224120646f6d61696e206f6e207460008201527f686520666f6c6c6f774d77206e616d652073657276696365222c2022696d616760208201527f65223a2022646174613a696d6167652f7376672b786d6c3b6261736536342c00604082015250565b6000613c61605f8361369a565b9150613c6c82613bdf565b605f82019050919050565b7f222c20226c656e677468223a2022000000000000000000000000000000000000600082015250565b6000613cad600e8361369a565b9150613cb882613c77565b600e82019050919050565b7f227d000000000000000000000000000000000000000000000000000000000000600082015250565b6000613cf960028361369a565b9150613d0482613cc3565b600282019050919050565b6000613d1a82613bbc565b9150613d2682866139a1565b9150613d3182613c54565b9150613d3d82856139a1565b9150613d4882613ca0565b9150613d5482846139a1565b9150613d5f82613cec565b9150819050949350505050565b7f646174613a6170706c69636174696f6e2f6a736f6e3b6261736536342c000000600082015250565b6000613da2601d8361369a565b9150613dad82613d6c565b601d82019050919050565b6000613dc382613d95565b9150613dcf82846139a1565b915081905092915050565b613de382612d3c565b67ffffffffffffffff811115613dfc57613dfb613023565b5b613e068254613669565b613e11828285613844565b600060209050601f831160018114613e445760008415613e32578287015190505b613e3c85826138b5565b865550613ea4565b601f198416613e5286613725565b60005b82811015613e7a57848901518255600182019150602085019450602081019050613e55565b86831015613e975784890151613e93601f891682613897565b8355505b6001600288020188555050505b505050505050565b7f4e487b7100000000000000000000000000000000000000000000000000000000600052601160045260246000fd5b6000613ee682612dee565b91507fffffffffffffffffffffffffffffffffffffffffffffffffffffffffffffffff8203613f1857613f17613eac565b5b600182019050919050565b600081519050919050565b600082825260208201905092915050565b6000613f4a82613f23565b613f548185613f2e565b9350613f64818560208601612d58565b613f6d81612d82565b840191505092915050565b6000608082019050613f8d6000830187612e83565b613f9a6020830186612e83565b613fa760408301856131c4565b8181036060830152613fb98184613f3f565b905095945050505050565b600081519050613fd381612cad565b92915050565b600060208284031215613fef57613fee612c77565b5b6000613ffd84828501613fc4565b91505092915050565b600060408201905081810360008301526140208185612d93565b905061402f60208301846131c4565b9392505050565b7f4e487b7100000000000000000000000000000000000000000000000000000000600052601260045260246000fd5b6000608082019050818103600083015261407f8187612d93565b905081810360208301526140938186612d93565b90506140a260408301856131c4565b81810360608301526140b48184612d93565b905095945050505050565b60006140ca82612dee565b91506140d583612dee565b92508282019050808211156140ed576140ec613eac565b5b92915050565b60006140fe82612dee565b915061410983612dee565b92508261411957614118614036565b5b828204905092915050565b600061412f82612dee565b915061413a83612dee565b925082820261414881612dee565b9150828204841483151761415f5761415e613eac565b5b5092915050565b600060408201905081810360008301526141808185612d93565b905081810360208301526141948184612d93565b90509392505050565b600060408201905081810360008301526141b78185612d93565b90506141c66020830184612e83565b9392505050565b600060608201905081810360008301526141e78186612d93565b905081810360208301526141fb8185612d93565b905061420a60408301846131c4565b949350505050565b60006040820190506142276000830185612e83565b61423460208301846131c4565b9392505050565b7f4e487b7100000000000000000000000000000000000000000000000000000000600052605160045260246000fdfe0a2d2d2d2d2d2d2d2d2d2d2d2d2d2d2d2d2d2d2d2d2d2d2d2d2d2d2d2d2d2d2d2d2d2d2d2d2d2d2d2d2d2d2d2d2d2d2d2d2d2d2d2d2d2d2d2d2d2d2d2d2d2d2d2d2d2d2d2d2d2d2d2d2d2d2d2d2d2d2d2d2d2d2d2d2d2d2d2d2d2d2d2d2d2d2d2d2d2d2d2d2d2d2d2d2d2d2d2d2d2d2d2d0a4142434445464748494a4b4c4d4e4f505152535455565758595a6162636465666768696a6b6c6d6e6f707172737475767778797a303132333435363738392b2f7468697320697320746865206e6577206964206f722077652063616e2073617920756e6971756965206f6e6520a264697066735822122067ebd11b72bd514e286950e2eec32bd3f8ef69430691484a3442ad4f26b8d73864736f6c634300081400333c73766720786d6c6e733d22687474703a2f2f7777772e77332e6f72672f323030302f737667222077696474683d2234303022206865696768743d22333430222066696c6c3d226e6f6e65223e3c706174682066696c6c3d2275726c282342292220643d224d302030683237307632373048307a222f3e3c646566733e3c66696c7465722069643d22412220636f6c6f722d696e746572706f6c6174696f6e2d66696c746572733d2273524742222066696c746572556e6974733d227573657253706163654f6e55736522206865696768743d22323730222077696474683d22323730223e3c666544726f70536861646f772064783d2230222064793d22312220737464446576696174696f6e3d22322220666c6f6f642d6f7061636974793d222e323235222077696474683d223230302522206865696768743d2232303025222f3e3c2f66696c7465723e3c2f646566733e3c7061746820643d224d37322e3836332034322e393439632d2e3636382d2e3338372d312e3432362d2e35392d322e3139372d2e3539732d312e3532392e3230342d322e3139372e35396c2d31302e30383120362e3033322d362e383520332e3933342d31302e30383120362e303332632d2e3636382e3338372d312e3432362e35392d322e3139372e3539732d312e3532392d2e3230342d322e3139372d2e35396c2d382e3031332d342e37323161342e353220342e35322030203020312d312e3538392d312e363136632d2e3338342d2e3636352d2e3539342d312e3431382d2e3630382d322e313837762d392e3331632d2e3031332d2e3737352e3138352d312e3533382e3537322d322e32303861342e323520342e323520302030203120312e3632352d312e3539356c372e3838342d342e3539632e3636382d2e33383720312e3432362d2e353920322e3139372d2e353973312e3532392e32303420322e3139372e35396c372e38383420342e353961342e353220342e353220302030203120312e35383920312e363136632e3338342e3636352e35393420312e3431382e36303820322e31383776362e3033326c362e38352d342e303635762d362e303332632e3031332d2e3737352d2e3138352d312e3533382d2e3537322d322e32303861342e323520342e32352030203020302d312e3632352d312e3539354c34312e3435362032342e3539632d2e3636382d2e3338372d312e3432362d2e35392d322e3139372d2e3539732d312e3532392e3230342d322e3139372e35396c2d31342e38363420382e36353561342e323520342e32352030203020302d312e36323520312e353935632d2e3338372e36372d2e35383520312e3433342d2e35373220322e3230387631372e343431632d2e3031332e3737352e31383520312e3533382e35373220322e32303861342e323520342e323520302030203020312e36323520312e3539356c31342e38363420382e363535632e3636382e33383720312e3432362e353920322e3139372e353973312e3532392d2e32303420322e3139372d2e35396c31302e3038312d352e39303120362e38352d342e3036352031302e3038312d352e393031632e3636382d2e33383720312e3432362d2e353920322e3139372d2e353973312e3532392e32303420322e3139372e35396c372e38383420342e353961342e353220342e353220302030203120312e35383920312e363136632e3338342e3636352e35393420312e3431382e36303820322e31383776392e333131632e3031332e3737352d2e31383520312e3533382d2e35373220322e32303861342e323520342e32352030203020312d312e36323520312e3539356c2d372e38383420342e373231632d2e3636382e3338372d312e3432362e35392d322e3139372e3539732d312e3532392d2e3230342d322e3139372d2e35396c2d372e3838342d342e353961342e353220342e35322030203020312d312e3538392d312e363136632d2e3338352d2e3636352d2e3539342d312e3431382d2e3630382d322e313837762d362e3033326c2d362e383520342e30363576362e303332632d2e3031332e3737352e31383520312e3533382e35373220322e32303861342e323520342e323520302030203020312e36323520312e3539356c31342e38363420382e363535632e3636382e33383720312e3432362e353920322e3139372e353973312e3532392d2e32303420322e3139372d2e35396c31342e3836342d382e363535632e3635372d2e33393420312e3230342d2e393520312e3538392d312e363136732e3539342d312e3431382e3630392d322e3138375635352e353338632e3031332d2e3737352d2e3138352d312e3533382d2e3537322d322e32303861342e323520342e32352030203020302d312e3632352d312e3539356c2d31342e3939332d382e3738367a222066696c6c3d2223666666222f3e3c646566733e3c6c696e6561724772616469656e742069643d2242222078313d2230222079313d2230222078323d22323730222079323d2232373022206772616469656e74556e6974733d227573657253706163654f6e557365223e3c73746f702073746f702d636f6c6f723d2223636235656565222f3e3c73746f70206f66667365743d2231222073746f702d636f6c6f723d2223306364376534222073746f702d6f7061636974793d222e3939222f3e3c2f6c696e6561724772616469656e743e3c2f646566733e3c7465787420783d2233322e352220793d223233312220666f6e742d73697a653d223237222066696c6c3d2223666666222066696c7465723d2275726c282341292220666f6e742d66616d696c793d22506c7573204a616b617274612053616e732c44656a6156752053616e732c4e6f746f20436f6c6f7220456d6f6a692c4170706c6520436f6c6f7220456d6f6a692c73616e732d73657269662220666f6e742d7765696768743d22626f6c64223e",
  "linkReferences": {},
  "deployedLinkReferences": {}
}